:060000000A128A11152905
:100200008A010A140F3982073F3406345B344F34B5
:1002100066346D347D3447347F34673477347C34CE
:1002200039345E3479347134080003178316880139
:100230008901031383168501851786010616861624
:1002400006178617870107148714071188010313FF
:1002500083168112011281110115811401140313F7
:1002600083120C308100031383168F110F168F1623
:100270000F1303138312850186018801870140292A
:100280004D21031383120718542187185B21060898
:10029000080207110319622140290B1D4D29031380
:1002A0008312860A0B11080007185429880A0808C7
:1002B00000218500080087185B29880308080021B1
:0A02C00085000800860107150800FC
:04400E00C430FF3F7C
:00000001FF
