:060000000A128A1100291A
:100200000317831688018901031383168501851658
:10021000051785170313831686010616861606171B
:10022000861703138316870107148714071587158C
:1002300007160313831688010816881608178817EF
:100240000718282987182C290719302987193429D4
:1002500007182829860A080087182C298603080011
:1002600007193029880A08008719342988030800EB
:0C0270009630A000A00B3A2908000800FE
:04400E00C430FF3F7C
:00000001FF
