:060000000A128A11152905
:10000800F000030EF1000B180E20710E8300F00EA5
:10001800700E090003138312061C850A861C8503CB
:040028000B100800B1
:100200008A010A140F3982073F3406345B344F34B5
:1002100066346D347D3447347F34673477347C34CE
:1002200039345E3479347134080003178316880139
:100230008901031383160510851005118511061415
:10024000861481131514951400308700003088003F
:1002500044213B215A210313831285018601870122
:1002600088010B1D31295621850A372131290508BE
:100270000021870008000313831616149614031335
:10028000831206080B100800031383160F178F162E
:100290000F120F1408000313831681128111011528
:1002A0008114011403138312562108003D3081008C
:0C02B0000B1108008B178B150B100800B9
:04400E00C430FF3F7C
:00000001FF
