:060000000A128A11162904
:10000800F000030EF1000800710E8300F00E700E70
:020018000900DD
:10020000031383128A010A1482073F3406345B34D5
:100210004F3466346D347D3447347F3467347734FB
:100220007C3439345E347934713408000317831612
:10023000880189010313831685010330860080300D
:100240008700E030880003138316811381120112A6
:100250008115011181100114031383126430810090
:10026000031383168F110F168F160F1303138312A8
:100270008B178B158B160313831285018701880159
:10028000A001031383120B1C482904204A210820D3
:100290006F21412903138312061C5121861C592109
:1002A000080003138312061C5329A00A20088500A6
:1002B000080003138312861C5B29A0032008850015
:1002C000080020080F39002103138312870008005B
:1002D00021080F390021031383128700080003133C
:1002E00083120B1D712903138312881408106121D6
:1002F00082210B1D792903138312881008146821A9
:100300008221080003138312643081000B1108005E
:04400E00C430FF3F7C
:00000001FF
