:020000040000FA
:060000000A128A110E280D
:10000800FE00030EF1000408F2000A08F3000A12C9
:100018008A1131290A128A11112883133530FD00FB
:100028000230FE000230FF002B3084000A128A11D1
:10003800F3210A128A11F501F601F70183010A1268
:100048008A11262803308316031788008901033094
:1000580083160313850086018701880147308F00C6
:1000680043308100B2308312031381008601870177
:1000780088011F139F139F10C3309F051F148316F9
:1000880003139F131F129F128B178B160B170C1736
:10009800831203139F146430A0000030A100770876
:1000A800A800A9012808A2002908A3000A128A1199
:1000B800C8200A128A11831203132008AA002A08EA
:1000C800B6006430A0000030A1007708A800A9019C
:1000D8002808A2002908A3000A128A1194210A12EA
:1000E8008A11831203132008AA002A08F9000A308B
:1000F800A0000030A1007908A800A9012808A200E2
:100108002908A3000A128A11C8200A128A11831228
:1001180003132008AA002A08F8000A30A0000030BB
:10012800A1007908A800A9012808A2002908A300AD
:100138000A128A1194210A128A11831203132008C1
:10014800AA002A08B5009F18AA28AB284F281F0C18
:10015800A800280C0F39003A031DB328B428B92881
:100168001F08C33904389F00BB28C3309F050330DC
:1001780083120313A800A80BBF28831203139F142C
:100188004F280A128A110E2883120313A501A11FF2
:10019800CE28CF28D628A009A109A00A0319A10AA8
:1001A800A501A50AA31FD928DA28E328A209A309CB
:1001B800A20A0319A30A0130F4007408A506A601CF
:1001C800A701200821040319EA28EB282229A40101
:1001D800A40AF92801300310A00DA10DFF3E031D4C
:1001E800EF280130F4007408A407A11FFC28FD289B
:1001F800EE2801300310A60DA70DFF3E031DFE28B3
:1002080021082302031D0A2920082202031C0D29A4
:100218000E2915292008A2022108031CA303A30202
:10022800261401300310A10CA00CFF3E031D162953
:100238000130A402031D21292229FD2825080319BC
:10024800262927292C29A609A709A60A0319A70AD6
:100258002708A1002608A0000800831203130C1F1A
:100268003629372948291F0CF000700C0F39003A3D
:10027800031D3F29402943291E08860047291E08D7
:10028800F0007008F7000C130B1D4B294C298B2923
:100298007829880187010430880035082B3E8400BE
:1002A8008313000887000130F5000030F600882924
:1002B800880187010230880078082B3E8400831368
:1002C800000887000230F5000030F6008829880110
:1002D80087010130880036082B3E8400831300080C
:1002E8008700F501F60188297608003A03197D2967
:1002F80088297508003A03194D29013A03195C2920
:10030800033A03196B2988290B11B230810073084D
:100318008A0072088400710E8300FE0E7E0E0900AA
:1003280083120313A501A31F9A299B29A229A209B5
:10033800A309A20A0319A30AA501A50AA11FA529B1
:10034800A629AB29A009A109A00A0319A10A200816
:1003580021040319B029B129E029A401A40ABF295D
:1003680001300310A00DA10DFF3E031DB52901307A
:10037800F4007408A407A11FC229C329B4292108BD
:100388002302031DC92920082202031CCC29CD29D8
:10039800D3292008A2022108031CA303A3020130C9
:1003A8000310A10CA00CFF3E031DD4290130A402A8
:1003B800031DDF29E029C32925080319E429E529B4
:1003C800EA29A209A309A20A0319A30A2308A1007A
:1003D8002208A00008007E088A007F0882000A120E
:1003E8008A11EF210A128A118000840A04087D0606
:1003F80003190034FF0A0319FE0AF3293F340634AF
:100408005B344F3466346D347D3407347F3467345D
:04400E00C430FF3F7C
:00000001FF
