:020000040000FA
:060000000A128A110C280F
:10000800FE00030EF0000A08F1000A128A111328F4
:100018000A128A110F2883010A128A113D280B1D22
:10002800162817283628031083120313051C0314F7
:1000380003181F2823288312031305142628831264
:10004800031305100310851C031403182C283028EB
:1000580083120313851433288312031385100C307D
:1000680081000B1171088A00700E8300FE0E7E0E4F
:100078000900831603178801890183160313850174
:1000880001308312031385008316031381120116AE
:100098008111073081040F088F3930388F000F1411
:1000A8008B178B160B110C308312031381005B28FE
:0600B8000A128A110C2857
:04400E00C430FF3F7C
:00000001FF
