:060000000A128A11162904
:10000800F000030EF1000800710E8300F00E700E70
:020018000900DD
:10020000031383128A010A1482073F3406345B34D5
:100210004F3466346D347D3447347F3467347734FB
:100220007C3439345E347934713408000317831612
:10023000880189010313831685010330860080300D
:100240008700E030880003138316811381120112A6
:100250008115011181100110031383126430810094
:10026000031383160F148F110F168F160F1303131A
:1002700083128B178B158B1603138312850187014D
:100280008801A001031383120B1C492904204C216F
:1002900008207121A321422903138312061C532134
:1002A000861C5B21080003138312061C5529A00A33
:1002B00020088500080003138312861C5D29A00313
:1002C00020088500080020080F390021031383123D
:1002D00087000800200E0F390021031383128700C6
:1002E0000800AC016430A20020082202031383122C
:1002F0000319AC0A03197629AA002C08A400AC0142
:100300000A30A2002A08A2020319AC0A03198329A1
:10031000AA002C08A6002A08A800080024080F3903
:100320000021031383128700080026080F390021DB
:10033000031383128700080028080F3900210313D4
:10034000831287000800031383120B1DA5290313D2
:1003500083128701023088006321D5210B1DAE294D
:10036000031383128701013088006A21D5210B1DF8
:10037000B729031383128701043088008E21D52109
:100380000B1DC029031383128701083088009521B3
:10039000D5210B1DC9290313831287011030880052
:1003A0009C21D5210B1DD229080003138312643030
:0603B00081000B110800A2
:04400E00C430FF3F7C
:00000001FF
