:020000040000FA
:100000000A128A11E22F00308A000408840A82074B
:1000100000345B3431345D3420344434653473341B
:1000200070346C3465346734613472342034433452
:100030006134643465346E3461342034643465343E
:10004000203443346134723461346334743465343D
:1000500072346534733420340D3420340034003469
:100060005134753465342034613463346334693415
:100070006F346E34203464346534733465346134E1
:10008000203465346A3465346334753474346134CF
:1000900072343F3420340D34203400340034493479
:1000A0006E346734723465347334653420346534A7
:1000B0006C342034763461346C346F3472343A34B6
:1000C00020340D342034003400345B3432345D3459
:1000D0002034433461346D346234693461347234B1
:1000E000203450344F3452345434413420340D349D
:1000F0002034003400345B3433345D3420344334F2
:1001000061346D3462346934613472342034503473
:100110004F3452345434423420340D3420340034BB
:1001200000344234753465346E34613473342034B1
:100130006A346F34763465346E3465347334203405
:080140000D34203400340034BA
:100E12006C346F346C340034F100232F7108840079
:100E22000A128A1103200A128A11831203139900EB
:100E320083160313981C1E2F1F2F192F0130F00049
:100E42007008F107710884000A128A1103200A123D
:100E52008A11003A031D2E2F2F2F0F2F0800831601
:100E62000317890188018316031385018601831202
:100E72000313850186017730831603138F000B1647
:100E82000B170C309900181183160317871183165C
:100E920003138C121812981618138312031398173F
:100EA200181318160C128C128B1728300A128A117A
:100EB2000D270A128A118230F300DD30F200F20BA4
:100EC200602FF30B602F652F01300A128A110D2754
:100ED2000A128A118230F300DD30F200F20B6F2F1A
:100EE200F30B6F2F742F5D300A128A110D270A122D
:100EF2008A118230F300DD30F200F20B7E2FF30B09
:100F02007E2F832F73300A128A110D270A128A113B
:100F12000B30F4002630F3005D30F200F20B8F2F1D
:100F2200F30B8F2FF40B8F2F962F831203138C1E2C
:100F32009B2F9C2F962F8230F300DD30F200F20BB4
:100F4200A02FF30BA02FA52F3130831203131A0603
:100F5200031DAC2FAD2FB42F89300A128A110D2731
:100F62000A128A11562F32301A06031DB92FBA2FD0
:100F7200C92F47300A128A110D270A128A118312C9
:100F820003138C1EC52FC62FC02F1A088500562F9B
:100F920033301A06031DCE2FCF2FDE2F47300A1211
:100FA2008A110D270A128A11831203138C1EDA2F5B
:100FB200DB2FD52F1A088600562F562F0A128A11B8
:100FC20000280A128A1109270A128A11F5000A1248
:100FD2008A110A270A128A11F6000A128A110B27AD
:100FE2000A128A11F7000A128A110C270A128A11B0
:0E0FF200F800F901FA0183010A128A11302F6A
:04400E00C430FF3F7C
:00000001FF
