:020000040000FA
:060000000A128A110C280F
:10000800FE00030EF1000A08F2000A128A11732892
:100018000A128A110F2883010A128A111328033041
:1000280083160317880089017730831603138F001E
:10003800831203131F139F179F10C3309F051F14AC
:10004800831603139F131F129F128B170B170C177E
:100058000330850007158714FF3092003F30831264
:10006800031397051708F0390C3897000F309500DF
:10007800CF30970587309205033092041D08F03978
:100088000C389D0012158C108C1C4B284C284828C5
:100098008C108316031307118710831203139F1400
:1000A8009F185728582854281F0CF300730C0F3931
:1000B800003A031D6028612866281F08C3390438E0
:1000C8009F006828C3309F052130F300F30B6A288E
:1000D800831203139F1454280A128A110C288312BE
:1000E80003130C1F7828792890281F0CF000700C37
:1000F8000F39003A031D8128822889281E08F0003C
:100108000310700C7D3E95008F281E08F000031028
:10011800700C7D3E9B000C1372088A00710E8300E0
:06012800FE0E7E0E090030
:04400E00C430FF3F7C
:00000001FF
