:020000040000FA
:060000000A128A110E280D
:10000800FE00030EF1000408F2000A08F3000A12C9
:100018008A11A2280A128A11112883133530FD008B
:100028000130FE00E430FF002B3084000A128A11F0
:10003800D5210A128A11F501F601F70183010A1286
:100048008A1126288316031788018901831603134A
:100058008501033086008701880137308F004330DF
:100068008100D930831203138100033083160313F0
:10007800960083120313850187018801F7018B1706
:100088008B168B156430A0000030A1007708A800FB
:10009800A9012808A2002908A3000A128A110D2123
:1000A8000A128A11831203132008AA002A08B6002C
:1000B8006430A0000030A1007708A800A901280832
:1000C800A2002908A3000A128A1176210A128A11AD
:1000D800831203132008AA002A08F9000A30A00096
:1000E8000030A1007908A800A9012808A200290861
:1000F800A3000A128A110D210A128A11831203130E
:100108002008AA002A08F8000A30A0000030A10040
:100118007908A800A9012808A2002908A3000A1242
:100128008A1176210A128A11831203132008AA0061
:100138002A08B50046280A128A110E280B1CA52881
:10014800A628B928831203130618AB28AC28B228AE
:100158000130F0007008F7070B10B9288618B52889
:10016800B628B9280130F7020B100B1DBC28BD2892
:100178000429EF28831203138801870104308800BB
:1001880035082B3E84008313000887000130F500F2
:100198000030F600FF28831203138801870102301C
:1001A800880078082B3E84008313000887000230FB
:1001B800F5000030F600FF28831203138801870139
:1001C8000130880036082B3E84008313000887001E
:1001D800F501F601FF287608003A0319F428FF28EC
:1001E8007508003A0319BE28013A0319CF28033AC3
:1001F8000319E028FF280B11D9308312031381005B
:1002080073088A0072088400710E8300FE0E7E0E49
:10021800090083120313A501A11F132914291B29FF
:10022800A009A109A00A0319A10AA501A50AA31FEB
:100238001E291F292829A209A309A20A0319A30A0A
:100248000130F4007408A506A601A70120082104BE
:1002580003192F2930296729A401A40A3E2901304E
:100268000310A00DA10DFF3E031D34290130F40039
:100278007408A407A11F412942293329013003101A
:10028800A60DA70DFF3E031D432921082302031DC8
:100298004F2920082202031C522953295A292008D1
:1002A800A2022108031CA303A30226140130031091
:1002B800A10CA00CFF3E031D5B290130A402031D05
:1002C800662967294229250803196B296C29712990
:1002D800A609A709A60A0319A70A2708A10026083C
:1002E800A000080083120313A501A31F7C297D2900
:1002F8008429A209A309A20A0319A30AA501A50A28
:10030800A11F872988298D29A009A109A00A0319F5
:10031800A10A20082104031992299329C229A401BA
:10032800A40AA12901300310A00DA10DFF3E031D51
:1003380097290130F4007408A407A11FA429A5294E
:10034800962921082302031DAB2920082202031C39
:10035800AE29AF29B5292008A2022108031CA3034E
:10036800A30201300310A10CA00CFF3E031DB62907
:100378000130A402031DC129C229A5292508031992
:10038800C629C729CC29A209A309A20A0319A30AC5
:100398002308A1002208A00008007E088A007F0820
:1003A80082000A128A11D1210A128A118000840A55
:1003B80004087D0603190034FF0A0319FE0AD5292B
:1003C8003F3406345B344F3466346D347D344734FF
:0403D8007F346734D3
:04400E00C430FF3F7C
:00000001FF
