:020000040000FA
:060000000A128A110E280D
:10000800FE00030EF1000408F2000A08F3000A12C9
:100018008A11A4280A128A11112883133530FD0089
:100028000130FE00F330FF002B3084000A128A11E1
:10003800E4210A128A11F801F90183010A128A11CE
:100048002528831603178801890183160313850160
:10005800033086008701880137308F0043308100E4
:10006800D9308312031381000330831603139600DB
:10007800831203138501870188018B178B168B1553
:100088000508A8002808F7006430A0000030A10087
:100098000508A800A9012808A2002908A3000A1237
:1000A8008A111C210A128A11831203132008AA003C
:1000B8002A08B6006430A0000030A1007708A80024
:1000C800A9012808A2002908A3000A128A1185217B
:1000D8000A128A11831203132008AA002A08F600BC
:1000E8000A30A0000030A1007608A800A90128085D
:1000F800A2002908A3000A128A111C210A128A11D7
:10010800831203132008AA002A08F5000A30A00069
:100118000030A1007608A800A9012808A200290833
:10012800A3000A128A1185210A128A118312031365
:100138002008AA002A08B50044280A128A110E28A5
:100148000B1CA728A828BB28831203130618AD2860
:10015800AE28B4280130F000700885070B10BB28C2
:100168008618B728B828BB28013085020B100B1D4C
:10017800BE28BF281329F128831203138801870199
:100188000430880035082B3E84008313000887005C
:100198000130F8000030F9000129831203138801A7
:1001A80087010230880075082B3E840083130008FD
:1001B80087000230F8000030F90001298312031388
:1001C800880187010130880036082B3E840083139C
:1001D80000088700F801F90101297908003A031994
:1001E800F62801297808003A0319C028013A0319AA
:1001F800D128033A0319E2280129031083120313B3
:10020800061D0314031809290D2983120313061563
:1002180010298312031306110B11D93081007308BA
:100228008A0072088400710E8300FE0E7E0E09009B
:1002380083120313A501A11F222923292A29A00912
:10024800A109A00A0319A10AA501A50AA31F2D291E
:100258002E293729A209A309A20A0319A30A0130E2
:10026800F4007408A506A601A701200821040319B3
:100278003E293F297629A401A40A4D2901300310FB
:10028800A00DA10DFF3E031D43290130F4007408A1
:10029800A407A11F50295129422901300310A60D96
:1002A800A70DFF3E031D522921082302031D5E29C5
:1002B80020082202031C6129622969292008A20258
:1002C8002108031CA303A302261401300310A10C68
:1002D800A00CFF3E031D6A290130A402031D7529E5
:1002E80076295129250803197A297B298029A60905
:1002F800A709A60A0319A70A2708A1002608A0002B
:10030800080083120313A501A31F8B298C299329A5
:10031800A209A309A20A0319A30AA501A50AA11FF4
:10032800962997299C29A009A109A00A0319A10ABD
:10033800200821040319A129A229D129A401A40A6A
:10034800B02901300310A00DA10DFF3E031DA62901
:100358000130F4007408A407A11FB329B429A52902
:1003680021082302031DBA2920082202031CBD29E3
:10037800BE29C4292008A2022108031CA303A30242
:1003880001300310A10CA00CFF3E031DC52901304C
:10039800A402031DD029D129B42925080319D52978
:1003A800D629DB29A209A309A20A0319A30A23084B
:1003B800A1002208A00008007E088A007F088200A9
:1003C8000A128A11E0210A128A118000840A04089C
:1003D8007D0603190034FF0A0319FE0AE4293F3495
:1003E80006345B344F3466346D347D3447347F349F
:0203F800673468
:04400E00C430FF3F7C
:00000001FF
