:060000000A128A1100291A
:1002000083160317031783168801890183120317C6
:1002100003138316850185160517851703138316A7
:10022000860106168616061786170313831687019E
:1002300007148714071587150716031383168801FB
:1002400008168816081788178312031307182F2912
:10025000871833290719372987193B2926290718B1
:100260002F29860A080087183329860308000719F2
:100270003729880A080087193B2988030800963027
:08028000A000A00B41290800B9
:04400E00C430FF3F7C
:00000001FF
