:060000000A128A1100291A
:1002000083160317031783168801890183120317C6
:1002100003138316850185160517851703138316A7
:10022000860106168616061786170313831687019E
:1002300007148714071587150716031383168801FB
:100240000816881608178817831203130718312910
:10025000871835290719392987193D29071A41298E
:10026000262907183129860A0800871835298603A8
:10027000080007193929880A080087193D298803C9
:100280000800071A4129060808078500080096306B
:08029000A000A00B49290800A1
:04400E00C130FF3F7F
:00000001FF
